:100000000C944E000C946C000C946C000C946C00DE
:100010000C946C000C946C000C946C000C946C00B0
:100020000C946C000C946C000C946C000C946C00A0
:100030000C946C000C946E000C94BB000C946C003F
:100040000C946C000C946C000C946C000C946C0080
:100050000C946C0017191C1F282C30355541525434
:10006000204672616D65204572726F723A200055AC
:10007000415254204F76657272756E204572726FD0
:10008000723A2000427566666572206F7665726608
:100090006C6F77206572726F723A200011241FBE58
:1000A000CFE5D8E0DEBFCDBF10E0A0E6B0E0E4E0F1
:1000B000FAE003C0C89531960D92AA37B107D1F77F
:1000C00010E0AAE7B0E001C01D92AA3CB107E1F739
:1000D0000E94CC030C94EC040C9400001F920F922D
:1000E00000905F000F9211242F938F939F93EF93B3
:1000F000FF93CF93DF9300D000D0CDB7DEB78BE274
:1001000090E0FC0180818A838CE290E0FC01808198
:100110008B838A81887189838091BC008F5F8F7106
:100120008C838091BD009C81981719F482E08983AB
:100130000BC08C818093BC008C81882F90E0865608
:100140009F4F2B81FC0120839091BE008981892BD8
:100150008093BE000F900F900F900F90DF91CF9182
:10016000FF91EF919F918F912F910F9000925F00DF
:100170000F901F9018951F920F9200905F000F92A2
:1001800011242F933F938F939F93EF93FF93CF93DC
:10019000DF931F92CDB7DEB79091BA008091BB007C
:1001A0009817A1F08091BB008F5F8F71898389813F
:1001B0008093BB008CE290E02981222F30E026580A
:1001C0003F4FF9012081FC01208309C08AE290E0C1
:1001D0002AE230E0F90120812F7DFC0120830F907D
:1001E000DF91CF91FF91EF919F918F913F912F914F
:1001F0000F9000925F000F901F901895CF93DF93A0
:1002000000D0CDB7DEB79A8389831092BA001092DE
:10021000BB001092BC001092BD0089819A81992385
:1002200054F48BE290E022E0FC01208389819A81E2
:100230009F779A83898380E490E029813A81232FF4
:100240003327FC01208389E290E02981FC0120838F
:100250008AE290E028E9FC01208380E490E026E82F
:10026000FC0120830F900F90DF91CF910895CF93E1
:10027000DF9300D0CDB7DEB79091BC008091BD0078
:10028000981719F480E091E017C08091BD008F5F4E
:100290008F71898389818093BD008981882F90E047
:1002A00086569F4FFC0180818A838091BE00109208
:1002B000BE008A81882F90E00F900F90DF91CF9140
:1002C0000895CF93DF9300D0CDB7DEB78A838091B6
:1002D000BA008F5F8F71898300008091BB00998184
:1002E0009817D9F38981882F90E086589F4F2A81EB
:1002F000FC01208389818093BA008AE290E02AE29F
:1003000030E0F90120812062FC0120830F900F90E2
:10031000DF91CF910895CF93DF9300D0CDB7DEB7B3
:100320009A8389830DC089819A81FC018081282F5D
:1003300089819A8101969A838983822F0E94610123
:1003400089819A81FC018081882369F70F900F9041
:10035000DF91CF9108951F93CF93DF9300D000D00A
:100360001F92CDB7DEB79D838C8303C0812F0E947F
:1003700061018C819D819A8389838C819D81019605
:100380009D838C8389819A81FC0114911B838B81CD
:10039000182F112359F70F900F900F900F900F9077
:1003A000DF91CF911F910895CF93DF93CDB7DEB743
:1003B00085E490E021E6FC01208389E590E029E5D1
:1003C00030E0F90120812064FC012083DF91CF918E
:1003D0000895CF93DF93CDB7DEB79091C70081E04A
:1003E000923009F480E0DF91CF910895CF93DF93AD
:1003F00000D0CDB7DEB79A8389831092C700898178
:100400009A819093C9008093C8000E94D4010E94F1
:100410000F0200000F900F90DF91CF910895CF93BE
:10042000DF93CDB7DEB71092C0001092BF0085E415
:1004300090E025E430E0F90120812E7FFC0120834B
:100440008091C8009091C900FC018081882309F443
:10045000D1C08091C8009091C900FC01808199278A
:1004600087FD90958633910509F467C08733910520
:10047000FCF48233910509F440C08333910584F480
:100480008033910509F48AC08133910584F5833264
:10049000910509F48AC08A32910509F478C093C0A5
:1004A00084339105E1F1853391050CF03FC02BC0F9
:1004B0008134910571F1823491056CF48833910592
:1004C00009F450C0883391050CF445C08933910577
:1004D00009F44FC078C08334910509F451C08334C6
:1004E000910594F18434910509F466C06CC01092B2
:1004F000C50084E08093C6006AC01092C50085E004
:100500008093C60064C01092C50086E08093C60048
:100510005EC01092C50087E08093C60058C081E09D
:100520008093C50084E08093C60051C081E0809331
:10053000C50085E08093C6004AC081E08093C50075
:1005400086E08093C60043C081E08093C50087E0C9
:100550008093C6003CC082E08093C50084E0809315
:10056000C60035C082E08093C50085E08093C60058
:100570002EC082E08093C50086E08093C60027C02D
:1005800082E08093C50087E08093C60020C083E0AE
:100590008093C50084E08093C60019C083E08093F7
:1005A000C50085E08093C60012C083E08093C5003B
:1005B00086E08093C6000BC083E08093C50087E08F
:1005C0008093C60004C01092C5001092C6008091AE
:1005D000C8009091C90001969093C9008093C8000B
:1005E00085E490E025E430E0F90120812160FC0100
:1005F000208303C082E08093C700DF91CF910895EC
:100600001F93CF93DF93CDB7DEB72A970FB6F89439
:10061000DEBF0FBECDBF9A8789878091C700882330
:10062000A1F58091C500882F90E08C5A9F4F9A8346
:10063000898389819A81FC0114911B838B81282FE6
:1006400030E08091C1009091C200820F931F90937F
:10065000C2008093C1008091C600882F90E08C5A20
:100660009F4F9D838C838C819D81FC0114911E83FF
:100670008E81282F30E08091C3009091C400820FBA
:10068000931F9093C4008093C3008091C100909108
:10069000C200049696958795969587959695879529
:1006A0008F778F838091C3009091C40004969695B4
:1006B000879596958795969587958F7788878F816B
:1006C000882F90E0805090400E94F804282F30E05E
:1006D000C901880F991F820F931F9595879595954E
:1006E00087958F838885882F90E0805090400E9466
:1006F000F804888783E490E03F812885230FFC017C
:1007000020838091BF009091C00001969093C0001B
:100710008093BF008091BF009091C0008E3CF9E0B3
:100720009F0740F08091C700882321F01092C700F6
:100730000E940F028091BF009091C000883B2BE087
:10074000920778F01092C2001092C1001092C4007B
:100750001092C30081E08093C7001092C0001092F5
:10076000BF002A960FB6F894DEBF0FBECDBFDF9153
:10077000CF911F910895CF93DF9300D000D0CDB7D4
:10078000DEB79A8389837C836B830F900F900F90E1
:100790000F90DF91CF910895CF93DF93CDB7DEB760
:1007A000CA54D1090FB6F894DEBF0FBECDBF87E69D
:1007B00090E00E94FE0078940E9437018B838B8129
:1007C000992787FD909588279170009709F0CAC0F6
:1007D0008B81992787FD909588279071009721F04C
:1007E0008CE590E00E94AB018B81992787FD909565
:1007F00088279870009721F08FE690E00E94AB0167
:100800008B81992787FD909588279270009721F01A
:1008100084E890E00E94AB0128E2CE018396FC01BF
:10082000322F11923A95E9F780E690E09CA38BA3D2
:1008300083EB94E09EA38DA385E690E098A78FA319
:1008400087ED94E09AA789A78EE690E09CA78BA7F6
:100850008EED94E09EA78DA783E790E098AB8FA7DD
:1008600085EE94E09AAB89AB29E1CE010896FC01B4
:10087000322F11923A95E9F78AE089A38DE08AA395
:100880001D821C8299A18B819817C9F09AA18B8136
:100890009817A9F08C819D818931910584F49E017E
:1008A000285F3F4F8C819D81820F931FFC018081C7
:1008B0008B838C819D8101969D838C8353C01F8285
:1008C0001E829E012F5D3F4F8E819F81820F931F5D
:1008D000FC0190818B81981709F044C08E819F8123
:1008E00001969F838E838E819F8182309105D1F501
:1008F0001F821E821D821C821A8219822EC089814B
:100900009A81880F991F880F991F9E012F5F3F4F73
:10091000820F931F8296FC01808191819E01285F46
:100920003F4FB9010E94EF04009791F489819A81A9
:10093000880F991F880F991F9E012F5F3F4F820FCD
:10094000931F8496FC0180819181FC0109950AC066
:1009500089819A8101969A83898389819A818A30D3
:10096000910568F2FFCFCF93DF93CDB7DEB76997DC
:100970000FB6F894DEBF0FBECDBF68E170E0CE01C8
:1009800001960E94BB0381E390E021E330E0F9018E
:1009900020812062FC01208300000E94E901009771
:1009A000E1F7CE0101960E94F6010000F5CFCF934A
:1009B000DF93CDB7DEB7DF91CF910895CF93DF936B
:1009C000CDB7DEB7DF91CF910895CF93DF93CDB749
:1009D000DEB7DF91CF910895F8940C940005FB01E8
:1009E000DC018D91019080190110D9F3990B0895C4
:1009F000E199FECF9FBB8EBBE09A99278DB30895F6
:040A0000F894FFCF98
:100A04006469616C006F70656E646F6F72006C6F07
:0A0A1400636B00756E6C6F636B007E
:00000001FF
