:1000000030C04BC04AC049C048C047C046C045C0C8
:1000100044C044C06FC041C040C03FC03EC03DC0AE
:100020003CC055415254204672616D652045727244
:100030006F723A200055415254204F7665727275A6
:100040006E204572726F723A200042756666657264
:10005000206F766572666C6F77206572726F723A88
:10006000200011241FBECFE5D2E0DEBFCDBF10E0DF
:10007000A0E6B0E0EEE6F2E003C0C89531960D923E
:10008000A636B107D1F710E0A6E6B0E001C01D9298
:10009000AB3AB107E1F7ADD0E8C0B2CF1F920F92F3
:1000A0000FB60F9211242F938F939F93EF93FF938B
:1000B0008BB19CB18871E0916800EF5FEF71209186
:1000C0006700E21739F0E0936800F0E0E559FF4F70
:1000D000908301C082E090916600982B9093660017
:1000E000FF91EF919F918F912F910F900FBE0F90E5
:1000F0001F9018951F920F920FB60F9211248F9395
:100100009F93EF93FF9390916A00809169009817F5
:1001100061F0E0916900EF5FEF71E0936900F0E05A
:10012000E557FF4F80818CB901C05598FF91EF9141
:100130009F918F910F900FBE0F901F901895109266
:100140006A0010926900109268001092670097FF91
:1001500003C022E02BB99F7790BD89B988E98AB99D
:1001600086E880BD08959091680080916700981797
:1001700081F0E0916700EF5FEF71E0936700F0E0DE
:10018000E559FF4F2081809166001092660030E0B3
:1001900002C020E031E0C901089590916A009F5F9C
:1001A0009F71209169009217E1F3E92FF0E0E55784
:1001B000FF4F808390936A00559A0895CF93DF9301
:1001C000EC0101C0EADF89918111FCCFDF91CF9171
:1001D0000895CF93DF93EC0101C0DFDFFE0121968C
:1001E00084918111FACFDF91CF910895D19AD99A54
:1001F0000895CF93DF9300D000D01F92CDB7DEB724
:1002000083E390E09CDF789425E0E0E6F0E0CE0127
:100210000196DC0101900D922A95E1F700E010E0D3
:100220006C01A1DFB82EE82EFF24E7FCF094F0FC6F
:10023000F8CFF4FE03C082E290E0CBDFF3FE03C010
:1002400085E390E0C6DFF1FE03C08AE490E0C1DF01
:10025000F601E00FF11F8081B81202C00F5F1F4F3F
:0E02600004301105F1F6C2DFDCCFF894FFCFB9
:06026E00746573740000CA
:00000001FF
