:1000000055C06FC06EC06DC080C440C46AC069C0B6
:1000100068C08AC066C0ADC1D6C163C062C061C0DD
:1000200060C05FC05EC07BC184C183C182C181C129
:1000300080C17FC16DC17DC17CC17BC17AC179C1E5
:100040006CC145C147C14CC151C152C153C156C118
:1000500057C15AC16EC16DC16CC16BC16AC169C162
:1000600068C141C149C152C15FC1E7C3C3C3C7C36E
:10007000CBC3E8C3CEC3D2C3BDC3D5C3D9C317193D
:100080001C1F282C3035310036303000363130001E
:100090003630310036313100363032003632300001
:1000A000363031002A2A002A3000390011241FBEC0
:1000B000CFE5D4E0DEBFCDBF10E0A0E6B0E0E0EFDA
:1000C000FAE002C005900D92A636B107D9F710E00C
:1000D000A6E6B0E001C01D92AF3FB107E1F7F1D253
:1000E00005C58ECF84E083BF89B7816089BF81B3A6
:1000F000887F81BB82B3876082BB85B3837C85BBED
:10010000089580916600853068F0809168008823AA
:1001100049F4809167008093680010926700809195
:100120006800089580E008951F920F920FB60F9215
:1001300011242F933F934F935F938F939F935091ED
:100140006900513039F0513018F0523039F404C0A0
:10015000A29A05C0A59A03C0A49A01C0A39A83E0FD
:10016000589FC0011124482F80936A00282F30E047
:10017000829915C08091670090E02F5F3F4F8217F2
:10018000930731F4809166008F5F8093660013C0FF
:100190004F5F409367004150109266000CC0809101
:1001A00068002F5F3F4F90E02817390721F4109225
:1001B000660010926800242F30E0819915C080916C
:1001C000670090E02E5F3F4F8217930731F48091D4
:1001D00066008F5F8093660013C04E5F4093670098
:1001E0004250109266000CC0809168002E5F3F4F15
:1001F00090E02817390721F41092660010926800E9
:10020000242F30E0809914C08091670090E02D5F2A
:100210003F4F8217930731F4809166008F5F809380
:10022000660012C04D5F40936700109266000CC0DC
:10023000809168002D5F3F4F90E02817390721F427
:1002400010926600109268005F5F537050936900CF
:1002500080916B0090916C00019690936C0080935C
:100260006B0084B3837C84BB9F918F915F914F918E
:100270003F912F910F900FBE0F901F90189581E620
:1002800085BD89B7806489BF08958091750090E02D
:10029000823009F091E0892F0895CF93DF93109277
:1002A0006E0010926D0085B58E7F85BDC091F30004
:1002B000D091F4008881882309F448C090E0FC01C3
:1002C000B397E232F105A8F5ED5EFF4F0994109265
:1002D000730021C01092730085E0809374002DC0DC
:1002E000109273001FC01092730021C081E011C0F2
:1002F00081E007C081E014C081E017C082E009C03E
:1003000082E080937300E8CF82E00AC082E00DC0F3
:1003100083E08093730084E0E0CF83E0F2CF83E05A
:100320008093730086E0D9CF83E08093730087E0E9
:10033000D4CF10927300109274002196D093F400E1
:10034000C093F30085B5816085BD03C082E08093D2
:100350007500DF91CF910895109275009093F4008D
:100360008093F30081E685BD89B7806489BF95DFFE
:1003700008951F920F920FB60F9211242F938F930F
:100380009F93EF93FF939BB12CB1E091DB00EF5F64
:10039000EF718091DC00E81711F482E008C0892F2A
:1003A0008871E093DB00F0E0E754FF4F20838093F7
:1003B000DD00FF91EF919F918F912F910F900FBED4
:1003C0000F901F9018951F920F920FB60F92112445
:1003D0008F939F93EF93FF939091D9008091DA00D0
:1003E000981761F0E091DA00EF5FEF73E093DA00C5
:1003F000F0E0E758FF4F80818CB901C05598FF911C
:10040000EF919F918F910F900FBE0F901F901895B5
:100410009C011092D9001092DA001092DB00109229
:10042000DC0097FF03C082E08BB93F7730BD29B96C
:1004300088E98AB986E880BD08959091DB008091B3
:10044000DC00981719F420E031E012C0E091DC00E4
:10045000EF5FEF71E093DC00F0E0E754FF4F308195
:100460002091DD00922F80E0AC01430F511D9A01D5
:10047000C9010895282F9091D9009F5F9F738091A3
:10048000DA009817E1F3E92FF0E0E758FF4F2083F7
:100490009093D900559A0895CF93DF93EC0102C051
:1004A0002196E8DF88818823D9F7DF91CF910895DD
:1004B000CF93DF93EC0101C0DDDFFE012196849133
:1004C0008823D1F7DF91CF91089584E088B981EC3A
:1004D0008EBD89B7806289BF89E190E099DF089578
:1004E000662311F0949A01C094989598BA9ABC9A90
:1004F000B89AB99AC198C098C498C29887FDC19A11
:1005000086FDC09A85FDC49A84FDC29A939A00C064
:100510009398C198C098C498C29883FDC19A82FDEF
:10052000C09A81FDC49A80FDC29A939A00C09398A4
:10053000C29AC49AC09AC19A0895882311F0949AD5
:1005400001C09498959ABA98BC98B898B998939A1B
:1005500000C0B29B02C080E101C080E0B49980621B
:10056000B0998064B1998068939800C0939A00C054
:10057000B2998160B4998260B0998460B1998860C1
:100580009398089580E0D9DF87FDFCCF88E090E064
:100590000197F1F780E0D1DF08951F93182FF2DF64
:1005A000812F60E09DDF1F9108951F93182FEADFD0
:1005B000812F61E095DF1F910895662311F4805823
:1005C00001C08054EADF0895DDDF90E0089581E006
:1005D000E4DF089582E0E1DF08951F93182FD2DF52
:1005E0001A3041F4803410F080E001C080E480587B
:1005F000D4DF03C0812F61E073DF1F910895CF9393
:10060000DF93EC0101C0E9DF89918823E1F7DF91F5
:10061000CF910895CF93DF93EC0101C0DEDFFE019F
:10062000219684918823D1F7DF91CF9108951F936C
:10063000182F8C9A8D9A8B9ABA9ABC9AB89AB99AB2
:1006400080E09AEF0197F1F7C49AC29A939A00C09A
:10065000939880E09EE40197F1F7939A00C09398F5
:1006600080E091E0FC013197F1F7939A00C09398F4
:10067000FC013197F1F7C298939A00C093980197C3
:10068000F1F788E28ADF88E088DFA1DF86E085DF96
:10069000812F83DF1F910895A99A8CEB92E020E9C6
:1006A00031E0F9013197F1F70197D9F7A9988CEB6F
:1006B00092E020E931E0F9013197F1F70197D9F79C
:1006C0000895EF92FF920F931F93CF93DF9388E2E9
:1006D00087BB82E084BB81E085BB8CE0A8DF77DF4D
:1006E00001DD7894C1E0D0E09AE2E92E00E383E2F4
:1006F000F82E11E006DD982F8093760083B38C27C7
:100700008170809377009923D9F1809178008531A9
:10071000B8F510926C0010926B009A3039F09A3054
:10072000B8F09B3049F09C3099F40CC0E82FF0E011
:10073000E252FF4FE08214C0E82FF0E0E252FF4F98
:1007400000830EC0E82FF0E0E252FF4FF08208C0B5
:100750009A3030F4E82FF0E0E252FF4F905D908342
:10076000C59AE82FF0E0E252FF4F808136DFE0913A
:100770007800EF5FE0937800F0E0E252FF4F1082E4
:1007800080916B0090916C008052934028F480918E
:100790007700882309F4AECF9091DE00992309F405
:1007A000A9CF80917800823009F05BC01092F500EB
:1007B000913319F0943371F405C085EF90E067EA46
:1007C00070E00CC085EF90E064EA70E044D11093D3
:1007D000770005C085EF90E064EA70E03CD180913D
:1007E000DF0090E0FC01F097EA30F10558F5EB5C92
:1007F000FF4F099485EF90E06AEA70E027C085EF2B
:1008000090E068E870E022C085EF90E066E870E074
:100810001DC085EF90E060E970E018C085EF90E0C2
:100820006CE870E013C085EF90E068E970E00EC0FE
:1008300085EF90E064E970E009C085EF90E060EA40
:1008400070E004C085EF90E06CE970E004D1809125
:100850007700882319F0109277001EDF85EF90E073
:1008600009C080917700882319F01092770014DF77
:100870008EED90E071DD809175008230E1F7C598D2
:10088000A6DE109278001092DE0034CF1F920F92F5
:100890000FB60F9211242F933F934F935F936F9353
:1008A0007F938F939F93AF93BF93EF93FF931DBC61
:1008B0001CBC86B597B5845D904388F486B597B522
:1008C0008754904160F086B597B560E670E04AE0E5
:1008D00050E0CCD080E690E0DFDD80E0CBDDB59B62
:1008E00002C0C59801C0C59AFF91EF91BF91AF9129
:1008F0009F918F917F916F915F914F913F912F9138
:100900000F900FBE0F901F9018951F920F920FB669
:100910000F921124EF92FF920F931F932F933F9307
:100920004F935F936F937F938F939F93AF93BF93F7
:10093000EF93FF9380917500882301F580916F00FC
:1009400090917000E0917300F0E0E258FF4FE49165
:100950008E0F911D9093700080936F0080917100B5
:1009600090917200E0917400F0E0E258FF4FE49142
:100970008E0F911D909372008093710080916F0093
:10098000909170000091710010917200049643E004
:10099000969587954A95E1F78F7790E08050904043
:1009A00079D0E82E0C5F1F4F33E0169507953A95E6
:1009B000E1F70F77802F90E0805090406BD093E06C
:1009C000E99E70011124F594E794F594E7948E0D57
:1009D00083BD80916D0090916E00019690936E00A2
:1009E00080936D0080916D0090916E008E5C9940B7
:1009F00038F080917500882319F0109275004DDC55
:100A000080916D0090916E00885B9B4078F0109211
:100A1000700010926F00109272001092710081E0CD
:100A20008093750010926E0010926D00FF91EF910F
:100A3000BF91AF919F918F917F916F915F914F91F6
:100A40003F912F911F910F91FF90EF900F900FBE4C
:100A50000F901F901895FB01DC010D900020E9F725
:100A6000119705900D920020E1F70895FB019F0179
:100A700042306CF045325CF4642F772723D0805DE0
:100A80008A330CF0895D8193CB010097A9F710821E
:100A9000C90108C0E199FECF9FBB8EBBE09A9927A0
:100AA0008DB30895DC01FC01672F71917723E1F785
:100AB000329704C07C916D9370836291AE17BF072B
:100AC000C8F30895AA1BBB1B51E107C0AA1FBB1F97
:100AD000A617B70710F0A61BB70B881F991F5A95CA
:100AE000A9F780959095BC01CD010895F894FFCFAA
:060AF00000000000000000
:00000001FF
