:100000000C9479000C9496000C9496000C94960035
:100010000C9496000C9496000C9496000C94960008
:100020000C9496000C9496000C9496000C949600F8
:100030000C9496000C9433010C945F010C94960080
:100040000C9496000C9496000C9496000C949600D8
:100050000C94960055415254204672616D652045BE
:1000600072726F723A200055415254204F76657279
:1000700072756E204572726F723A20004275666624
:100080006572206F766572666C6F77206572726F2D
:10009000723A2000504353574954434800756172E7
:1000A0007420696E6974696572742000706F696E7E
:1000B0007465722067657365747A74200073746167
:1000C0007465206D616368696E6520646566696E3C
:1000D0006965727420007374617465206D61636872
:1000E000696E6520312064757263686C6175662085
:1000F000000011241FBECFE5D8E0DEBFCDBF10E069
:10010000A0E6B0E0E0E9F6E002C005900D92A83F5D
:10011000B107D9F711E0A8EFB0E001C01D92A237F6
:10012000B107E1F70E94CB020C9446030C94000047
:10013000CF93DF93CDB7DEB7A0970FB6F894DEBFAD
:100140000FBECDBF20916A0130916B013A832983A4
:1001500028E930E03C832B8320913F01309140011E
:100160003E832D8321EA30E038872F831A86198653
:100170002AEA30E03C872B871E861D8624EB30E080
:10018000388B2F8720914501309146013A8B298B7E
:1001900020EC30E03C8B2B8B209165013091660187
:1001A0003E8B2D8B2CEC30E0388F2F8B2091430130
:1001B000309144013A8F298F2BED30E03C8F2B8F0B
:1001C00020914101309142013E8F2D8F2AEE30E087
:1001D00038A32F8FFC0120812A30D9F49E012D5F96
:1001E0003F4F80E090E001C001962C5F3F4FF90146
:1001F00034974081518147545140B1F7880F991F7E
:10020000880F991FFE013196E80FF91F80819181B7
:1002100021C0E091F800F091F900E95BFE4F2081E8
:10022000211104C01092F9001092F8002091F800FA
:100230003091F900FC018081F901E95BFE4F808378
:100240002F5F3F4F3093F9002093F80080916E01AB
:1002500090916F01A0960FB6F894DEBF0FBECDBF90
:10026000DF91CF9108951F920F920FB60F92112434
:100270002F938F939F93EF93FF938BB19CB18871D2
:10028000E091FC00EF5FEF712091FB00E21739F085
:10029000E093FC00F0E0E150FF4F908301C082E06A
:1002A0009091FA00982B9093FA00FF91EF919F9113
:1002B0008F912F910F900FBE0F901F9018951F9246
:1002C0000F920FB60F9211248F939F93EF93FF938A
:1002D0009091FE008091FD00981761F0E091FD0083
:1002E000EF5FEF71E093FD00F0E0E15EFE4F808193
:1002F0008CB901C05598FF91EF919F918F910F900C
:100300000FBE0F901F9018951092FE001092FD00E6
:100310001092FC001092FB0097FF03C022E02BB963
:100320009F7790BD89B988E98AB986E880BD08952C
:100330009091FC008091FB00981781F0E091FB0008
:10034000EF5FEF71E093FB00F0E0E150FF4F2081A1
:100350008091FA001092FA0030E002C020E031E013
:10036000C90108959091FE009F5F9F712091FD004B
:100370009217E1F3E92FF0E0E15EFE4F8083909366
:10038000FE00559A0895CF93DF93EC0102C00E94BE
:10039000B20189918111FBCFDF91CF910895CF9365
:1003A000DF93EC0102C00E94B201FE01219684910C
:1003B0008111F9CFDF91CF9108950E949801809328
:1003C0006701282F332727FD309530FD10C034FFFB
:1003D00003C084E590E009C033FF03C087E690E0E6
:1003E00004C031FF09C08CE790E00E94CF018091EA
:1003F0006E0190916F0108950E94B2010895AE9A26
:1004000083B30895AF9A83B380916E0190916F0189
:100410000895AC9A83B380916E0190916F01089515
:10042000A09AA89A84E990E00E94CF012FE38DE082
:1004300093E0215080409040E1F700C00000A09878
:10044000A89880916E0190916F01089596E896B9F1
:10045000806487B9369A3699FECF43E080E090E019
:10046000369A3699FECF24B135B1820F931F415091
:10047000B9F7379863E070E00E94DF02CB0108957E
:100480000F931F93CF93DF93CDB7DEB72F970FB6A0
:10049000F894DEBF0FBECDBFDC018C910E94260216
:1004A0009C0140E050E060E070E888E391E00E9449
:1004B000F30220523E4441095109CA01B90124E125
:1004C00030E040E050E00E94F30202E610E061E01C
:1004D00070E0D801ED91FD918D01CF01A0E0B0E079
:1004E000281739074A075B0730F46F5F7F4F6C317D
:1004F000710579F72EC08AE089838DE08A832E1BEF
:100500003F0B45E0429FC001439F900D1124469F41
:100510009001479F300D112428523109DB01AA0FA9
:10052000BB1FA25ABF4F6D917C916E1B7F0B0E9427
:10053000DF02CB014AE050E0BE016D5F7F4FF90161
:10054000E81BF90BCF010E941503CE0101960E9412
:10055000C30180916E0190916F012F960FB6F894B0
:10056000DEBF0FBECDBFDF91CF911F910F910895D8
:100570008DED91E090936F0180936E0188E990E09A
:1005800090937101809370010E94DD019093690145
:1005900080936801089586E090E00E948401789439
:1005A0008DE990E00E94CF018CEA90E00E94CF019B
:1005B0008DEB90E00E94CF0186ED90E0FBCFAA1B6F
:1005C000BB1B51E107C0AA1FBB1FA617B70710F03E
:1005D000A61BB70B881F991F5A95A9F78095909570
:1005E000BC01CD010895A1E21A2EAA1BBB1BFD017F
:1005F0000DC0AA1FBB1FEE1FFF1FA217B307E40702
:10060000F50720F0A21BB30BE40BF50B661F771F59
:10061000881F991F1A9469F7609570958095909539
:100620009B01AC01BD01CF010895FB019F01E8943E
:100630004230C4F04532B4F44A3029F497FB1EF43A
:10064000909581959F4F642F77270E94DF02805DF0
:100650008A330CF0895D8193CB010097A1F716F4E2
:100660005DE251931082C9010C943603DC01FC0158
:10067000672F71917723E1F7329704C07C916D93D6
:1006800070836291AE17BF07C8F30895F894FFCF47
:100690001068824B82371829CD1E3817B211920D7F
:1006A000850A3108700615053E039D021E02BA0137
:1006B0006A012A01F700CD00AB00900079006600C6
:1006C00057004A004000370070635F70776C6564C4
:1006D0000070635F68646C65640070635F73776962
:1006E0007463680070635F7377697463683873005C
:1006F00074656D705F73656E736F720068756D6998
:10070000646974795F73656E73310068756D6964CF
:100710006974795F73656E7332006C6963687473B2
:080720006368616C74657200EE
:00000001FF
