:1000000010C023C022C021C020C01FC01EC01DC000
:100010001CC01BC01AC019C018C017C016C015C01C
:1000200014C011241FBECFE5D2E0DEBFCDBF10E06B
:10003000A0E6B0E0EAEDF0E003C0C89531960D927D
:10004000A636B107D1F729D046C0DACF07C0EFEC0A
:10005000F7E03197F1F700C0000001970097B9F77A
:10006000089510BC83E389B9539A80B5806880BD38
:1000700086E080BD599A08955D9BFECF8CB980E0E3
:1000800090E00895CF93DF93EC0101C0F5DF8991F3
:100090008111FCCFDF91CF910895CF93DF9300D0F2
:1000A00000D000D0CDB7DEB7D09A01E016E08BB318
:1000B00080278BBB88EE93E0C9DFD3DFE0E6F0E07A
:1000C000DE011196812F01900D928A95E1F7CE0104
:0A00D0000196D8DFECCFF894FFCFC3
:0600DA00746573740A0056
:00000001FF
