:100000000C942A000C9439030C9447000C9447007C
:100010000C9447000C9447000C9447000C94470044
:100020000C9447000C9447000C9474030C94470004
:100030000C9447000C9468040C94B5040C9447008D
:100040000C9447000C9447000C9447000C94470014
:100050000C94470011241FBECFE5D8E0DEBFCDBF12
:1000600011E0A0E6B0E0ECEBFBE002C005900D92E1
:10007000AE33B107D9F712E0AEE3B1E001C01D9293
:10008000A038B107E1F70E94CC050C94DC050C9474
:100090000000CF93DF93CDB7DEB782E390E022E399
:1000A00030E0F90120812460FC01208381E390E0AD
:1000B00021E330E0F90120812B7FFC012083DF91D7
:1000C000CF910895CF93DF93CDB7DEB782E390E071
:1000D00022E330E0F90120812460FC01208381E3E8
:1000E00090E021E330E0F90120812460FC012083CD
:1000F000DF91CF910895CF93DF93CDB7DEB785E53C
:1001000090E025E530E0F90120812160FC012083A9
:1001100085E590E025E530E0F90120812260FC01D1
:1001200020838BE590E02BE530E0F901208120640D
:10013000FC012083DF91CF910895CF93DF93CDB75A
:10014000DEB785E590E025E530E0F901208121600A
:10015000FC01208385E590E025E530E0F901208170
:100160002260FC0120838BE590E02BE530E0F90173
:1001700020812064FC012083DF91CF910895CF93EB
:10018000DF93CDB7DEB78BE590E02BE530E0F901EA
:1001900020812F7BFC012083DF91CF910895CF93A5
:1001A000DF93CDB7DEB783E590E023E530E0F901DA
:1001B00020812860FC01208383E590E023E530E086
:1001C000F90120812160FC01208389E590E029E587
:1001D00030E0F90120812260FC012083DF91CF9182
:1001E0000895CF93DF93CDB7DEB789E590E029E599
:1001F00030E0F90120812D7FFC012083DF91CF9138
:100200000895CF93DF93CDB7DEB782E590E0FC0190
:10021000808182E590E0FC0180818E3130F481E0C4
:1002200090E090936B0280936A02DF91CF910895E2
:10023000CF93DF93CDB7DEB780916A0290916B02C6
:100240000097F1F080914201909143019C0181E07F
:1002500090E0AC0102C0440F551F2A95E2F780914F
:100260004001909141019C0124593D4FF9012081A9
:10027000322F242F232B84599D4FFC0120831FC034
:1002800080914201909143019C0181E090E002C085
:10029000880F991F2A95E2F7AC01409550958091FF
:1002A0004001909141019C0124593D4FF901208169
:1002B000322F242F232384599D4FFC0120838091CA
:1002C0004201909143018730910559F4809140019A
:1002D0009091410101968F709927909341018093ED
:1002E00040018091420190914301019687709927C6
:1002F000909343018093420110926B0210926A0224
:10030000DF91CF910895CF93DF9300D0CDB7DEB7C3
:100310009A838983809140019091410129813A819A
:10032000F901208184599D4FFC0120838091400177
:100330009091410101968F7099279093410180938C
:1003400040010F900F90DF91CF910895CF93DF93ED
:1003500000D0CDB7DEB780913E0190913F01845926
:100360009D4FFC018081282F30E0809144019091C5
:100370004501822393239A8389838091440190913C
:1003800045018730910559F480913E0190913F01DC
:1003900001968F70992790933F0180933E01809141
:1003A00044019091450101968770992790934501EA
:1003B0008093440189819A810F900F90DF91CF91B2
:1003C0000895CF93DF931F92CDB7DEB720913E0102
:1003D00030913F01809140019091410128173907E8
:1003E000B1F080913E0190913F0184599D4FFC01F5
:1003F0008081898380913E0190913F0101968F70A9
:10040000992790933F0180933E01898101C080E04C
:100410000F90DF91CF910895CF93DF93CDB7DEB7E3
:10042000DF91CF910895CF93DF93CDB7DEB7CD5D48
:10043000D1090FB6F894DEBF0FBECDBF2DEDE0E6BB
:10044000F0E0CE010196DC0101900D922A95E1F7D2
:10045000C352DF4F0FB6F894DEBF0FBECDBFDF91A2
:10046000CF910895CF93DF93CDB7DEB720917C0273
:1004700030917D0241E1429FC001439F900D1124C4
:1004800081579E4FFC0180819181FC0109958CE58B
:1004900090E040917C0250917D0261E1649F900167
:1004A000659F300D11242F563E4FF9012081318177
:1004B000FC01208320917C0230917D0241E1429F2A
:1004C000C001439F900D112489569E4FFC018081ED
:1004D0009181FC010995DF91CF910895CF93DF932E
:1004E000CDB7DEB720917C0230917D0241E1429F81
:1004F000C001439F900D11248B569E4FFC018081BB
:10050000918190937D0280937C020E943202DF9160
:10051000CF910895CF93DF93CDB7DEB70E94BF028E
:1005200020913E0130913F01809140019091410125
:100530002817390791F00E94A601009739F08BE047
:1005400090E090932702809326020BC08AE090E00F
:10055000909327028093260204C010928C0110927F
:100560008B01DF91CF910895CF93DF93CDB7DEB7A5
:100570000E94BF020E941801DF91CF910895CF938E
:10058000DF93CDB7DEB720917C0230917D0241E14F
:10059000429FC001439F900D112483579E4FFC0141
:1005A0008081918190937D0280937C020E9432022F
:1005B000DF91CF910895CF93DF93CDB7DEB782E57A
:1005C00090E0FC018081282F30E040917C02509126
:1005D0007D0261E1649FC001659F900D11248556E5
:1005E0009E4FFC0180819181281739071CF40E94DD
:1005F0006E022FC088E090E090937D0280937C0291
:100600000E94A601009791F020917C0230917D021A
:1006100041E1429FC001439F900D112483579E4F9B
:100620002BE030E0FC013183208311C020917C025B
:1006300030917D0241E1429FC001439F900D112402
:1006400083579E4F2AE030E0FC01318320830E94D3
:10065000BF02DF91CF910895CF93DF93CDB7DEB77F
:1006600010927D0210927C020E943202DF91CF91A3
:1006700008951F920F9200905F000F9211242F9304
:100680003F934F935F936F937F938F939F93AF931A
:10069000BF93EF93FF93CF93DF93CDB7DEB7209156
:1006A0007C0230917D0241E1429FC001439F900D49
:1006B000112487569E4FFC0180819181FC01099590
:1006C000DF91CF91FF91EF91BF91AF919F918F916A
:1006D0007F916F915F914F913F912F910F90009279
:1006E0005F000F901F9018951F920F9200905F006F
:1006F0000F9211242F933F934F935F936F937F93A8
:100700008F939F93AF93BF93EF93FF93CF93DF9319
:10071000CDB7DEB720917C0230917D0241E1429F4E
:10072000C001439F900D11248D569E4FFC01808186
:100730009181FC010995DF91CF91FF91EF91BF91DC
:10074000AF919F918F917F916F915F914F913F9169
:100750002F910F9000925F000F901F901895CF93EC
:10076000DF93CDB7DEB70E94130210927D02109284
:100770007C020E94CF00DF91CF910895CF93DF9349
:10078000CDB7DEB70E943202DF91CF910895CF93AB
:10079000DF93CDB7DEB710927D0210927C020E94EB
:1007A000BF000E94F1000E943202DF91CF910895B4
:1007B000CF93DF93CDB7DEB70E94E101DF91CF91F8
:1007C0000895CF93DF931F92CDB7DEB78983209131
:1007D0007C0230917D0241E1429FC001439F900D18
:1007E000112483569E4FFC01908181E08927882344
:1007F00079F08981992787FD90950E94830186E091
:1008000090E090937D0280937C020E94320201C0AE
:1008100000000F90DF91CF910895CF93DF9300D028
:1008200000D0CDB7DEB79C838B8320917C023091C2
:100830007D0241E1429FC001439F900D11248356E8
:100840009E4FFC01908181E089278823C9F11A829B
:1008500019820DC086E090E090937D0280937C0227
:100860000E94320289819A8101969A8389838981C3
:100870009A812B813C81820F931F21E0FC01208310
:1008800089819A812B813C81820F931FFC01808199
:10089000992787FD90950E94830120917C023091D9
:1008A0007D0241E1429FC001439F900D1124835678
:1008B0009E4FFC01908181E08927882399F2CACF5D
:1008C00000000F900F900F900F90DF91CF9108953F
:1008D0001F920F9200905F000F9211242F938F931D
:1008E0009F93EF93FF93CF93DF9300D000D0CDB7CA
:1008F000DEB78BE290E0FC0180818A838CE290E09D
:10090000FC0180818B838A81887189838091880131
:100910008F5F8F718C83809189019C81981719F466
:1009200082E089830BC08C81809388018C81882F21
:1009300090E08A599E4F2B81FC01208390918A017F
:100940008981892B80938A010F900F900F900F90CF
:10095000DF91CF91FF91EF919F918F912F910F9008
:1009600000925F000F901F9018951F920F920090B9
:100970005F000F9211242F933F938F939F93EF93D8
:10098000FF93CF93DF931F92CDB7DEB7909186018F
:10099000809187019817A1F0809187018F5F8F71F7
:1009A00089838981809387018CE290E02981222FBD
:1009B00030E02A5B3E4FF9012081FC01208309C011
:1009C0008AE290E02AE230E0F90120812F7DFC01EB
:1009D00020830F90DF91CF91FF91EF919F918F91A5
:1009E0003F912F910F9000925F000F901F901895EC
:1009F000CF93DF9300D0CDB7DEB79A83898310926F
:100A000086011092870110928801109289018981D4
:100A10009A81992354F48BE290E022E0FC01208338
:100A200089819A819F779A83898380E490E02981E4
:100A30003A81232F3327FC01208389E290E029812A
:100A4000FC0120838AE290E028E9FC01208380E415
:100A500090E026E8FC0120830F900F90DF91CF916A
:100A60000895CF93DF9300D0CDB7DEB79091880182
:100A700080918901981719F480E091E017C0809166
:100A800089018F5F8F718983898180938901898131
:100A9000882F90E08A599E4FFC0180818A83809143
:100AA0008A0110928A018A81882F90E00F900F901E
:100AB000DF91CF910895CF93DF9300D0CDB7DEB70C
:100AC0008A83809186018F5F8F7189830000809176
:100AD000870199819817D9F38981882F90E08A5BE3
:100AE0009E4F2A81FC0120838981809386018AE2BE
:100AF00090E02AE230E0F90120812062FC012083AD
:100B00000F900F90DF91CF910895CF93DF9300D096
:100B1000CDB7DEB79A8389830BC089819A819C0106
:100B20002F5F3F4F3A832983FC0180810E945B0540
:100B300089819A81FC018081882379F70F900F9039
:100B4000DF91CF9108951F93CF93DF9300D000D012
:100B50001F92CDB7DEB79D838C8303C0812F0E9487
:100B60005B058C819D819C012F5F3F4F3D832C83D2
:100B70009A83898389819A81FC0184918B838B81FB
:100B8000182F112359F70F900F900F900F900F907F
:100B9000DF91CF911F910895CF93DF931F92CDB72F
:100BA000DEB778940E94AF030E94BE0381E689837A
:0C0BB00089810E94E103FFCFF894FFCF81
:100BBC00010049005000F10000009D00BF02000040
:100BCC000002004900F4012C0300007B00DB0290C2
:100BDC000101030049000A00BF020000BF000C0223
:100BEC00000001040062003C00BF020000BF000CCA
:100BFC0002000001050049003C00B40200007B002B
:100C0C000101000001040049000A00BF020000BFFE
:100C1C00000C0200000107006200E001BF020000AE
:100C2C00BF000C02000001080062000A00BF0200B5
:100C3C0000BF000C020000010600490050006E02CB
:100C4C0006007B00DB02320001000049000A00BFF5
:100C5C00020000BF000C02000001090062003C0011
:100C6C008A020000BF000C020000010C0062000FA1
:100C7C0000BF020000BF000C020000010900490087
:0E0C8C002D008A020000BF000C0200000100D3
:00000001FF
