:1000000010C02BC02AC029C028C027C026C025C0C8
:1000100024C024C04FC021C020C01FC01EC01DC0AE
:100020001CC011241FBECFE5D2E0DEBFCDBF10E063
:10003000A0E6B0E0E6EEF1E003C0C89531960D927F
:10004000A836B107D1F710E0A8E6B0E001C01D92D4
:10005000AD3AB107E1F7AAD0C4C0D2CF1F920F9238
:100060000FB60F9211242F938F939F93EF93FF93CB
:100070008BB19CB18871E0916A00EF5FEF712091C4
:100080006900E21739F0E0936A00F0E0E359FF4FAE
:10009000908301C082E090916800982B9093680053
:1000A000FF91EF919F918F912F910F900FBE0F9025
:1000B0001F9018951F920F920FB60F9211248F93D5
:1000C0009F93EF93FF9390916C0080916B00981732
:1000D00061F0E0916B00EF5FEF71E0936B00F0E097
:1000E000E357FF4F80818CB901C05598FF91EF9184
:1000F0009F918F910F900FBE0F901F9018951092A7
:100100006C0010926B0010926A001092690097FFC9
:1001100003C022E02BB99F7790BD89B988E98AB9DD
:1001200086E880BD089590916A00809169009817D3
:1001300081F0E0916900EF5FEF71E0936900F0E01A
:10014000E359FF4F2081809168001092680030E0F1
:1001500002C020E031E0C901089590916C009F5FDA
:100160009F7120916B009217E1F3E92FF0E0E357C4
:10017000FF4F808390936C00559A0895CF93DF933F
:10018000EC0101C0EADF89918111FCCFDF91CF91B1
:100190000895CF93DF93EC0101C0DFDFFE012196CC
:1001A00084918111FACFDF91CF910895CF93DF939E
:1001B000CDB7DEB727970FB6F894DEBF0FBECDBF21
:1001C00083E390E09CDF789487E0E0E6F0E0DE01F6
:1001D000119601900D928A95E1F7CE010196CEDF3E
:0601E000FCCFF894FFCFF4
:0801E60074657374200A000027
:00000001FF
