:100000000C944A000C9468000C9468000C946800EE
:100010000C9468000C9468000C9468000C946800C0
:100020000C9468000C9468000C9468000C946800B0
:100030000C9468000C946A000C9496000C94680070
:100040000C9468000C9468000C9468000C94680090
:100050000C94680055415254204672616D652045EC
:1000600072726F723A200055415254204F76657279
:1000700072756E204572726F723A20004275666624
:100080006572206F766572666C6F77206572726F2D
:10009000723A200011241FBECFE5D8E0DEBFCDBFED
:1000A00010E0A0E6B0E0E0EFF2E003C0C8953196C2
:1000B0000D92A636B107D1F710E0A6E6B0E001C078
:1000C0001D92AB3AB107E1F70E9425010C9476012D
:1000D0000C9400001F920F920FB60F9211242F93D1
:1000E0008F939F93EF93FF938BB19CB18871E091B5
:1000F0006800EF5FEF7120916700E21739F0E0933D
:100100006800F0E0E559FF4F908301C082E09091D4
:100110006600982B90936600FF91EF919F918F91CD
:100120002F910F900FBE0F901F9018951F920F9256
:100130000FB60F9211248F939F93EF93FF9390919B
:100140006A0080916900981761F0E0916900EF5FA3
:10015000EF71E0936900F0E0E557FF4F80818CB9C3
:1001600001C05598FF91EF919F918F910F900FBE15
:100170000F901F90189510926A00109269001092CB
:1001800068001092670097FF03C022E02BB99F77A9
:1001900090BD89B988E98AB986E880BD08959091B3
:1001A000680080916700981781F0E0916700EF5F29
:1001B000EF71E0936700F0E0E559FF4F20818091F7
:1001C00066001092660030E002C020E031E0C90114
:1001D000089590916A009F5F9F7120916900921726
:1001E000E1F3E92FF0E0E557FF4F808390936A0039
:1001F000559A0895CF93DF93EC0102C00E94E90065
:1002000089918111FBCFDF91CF910895CF93DF9337
:10021000EC0102C00E94E900FE0121968491811147
:10022000F9CFDF91CF910895D19AD99A0895D198B5
:10023000D998089507C0E9EFF0E03197F1F700C0D1
:10024000000001970097B9F70895CF93DF9300D08E
:1002500000D01F92CDB7DEB70E94140186E090E077
:100260000E94BB00789485E0E0E6F0E0DE011196A4
:1002700001900D928A95E1F7379A389A3E9A3F9A03
:10028000329A319A3098369A3699FECF84B195B128
:1002900000E010E00E94CF00D82EE82EFF24E7FCFB
:1002A000F094F0FCF7CFF4FE04C084E590E00E94E7
:1002B0000601F3FE04C087E690E00E940601F1FE0D
:1002C00004C08CE790E00E940601E1E0F0E0EC0F52
:1002D000FD1FE00FF11F8081D81202C00F5F1F4F7A
:1002E00004301105B9F60E941701D4CFF894FFCF5E
:0602F00074657374000048
:00000001FF
